:1000000026C040C03FC03EC03DC054C13BC03AC006
:1000100039C038C037C036C035C034C033C0000026
:10002000000037000000000038000000000036002B
:10003000020202020202020202020102040810206D
:100040002004100801020000040000000000112438
:100050001FBECFE5D2E0DEBFCDBF10E0A0E6B0E02E
:10006000EEE1F2E102C005900D92A637B107D9F793
:1000700021E0A6E7B0E001C01D92A731B207E1F789
:1000800063D1CBC8BDCF823089F018F4813051F0F4
:100090000895833019F0843009F008958CB58F7D70
:1000A0008CBD08958AB58F778ABD08958AB58F7DF6
:1000B000FBCF1F93CF93DF93282F30E0F901EC5B48
:1000C000FF4F8491F901E65CFF4FD491F901E05DA7
:1000D000FF4FC491CC23A1F0162F8111D4DFEC2F58
:1000E000F0E0EE0FFF1FEC5DFF4FA591B4918FB7CD
:1000F000F894EC91111108C0D095DE23DC938FBFEA
:10010000DF91CF911F910895DE2BF8CFCF93DF932E
:1001100090E0FC01E65CFF4F2491805D9F4FFC0165
:1001200084918823D1F090E0880F991FFC01E25E52
:10013000FF4FA591B491FC01EC5DFF4FC591D491A7
:10014000623071F49FB7F8943C91822F809583239D
:100150008C93E8812E2B28839FBFDF91CF91089548
:100160008FB7F894EC912E2B2C938FBFF6CF86503F
:1001700087B9369A3699FECF84B195B108953FB7C5
:10018000F89480917B0090917C00A0917D00B091CB
:100190007E0022B708B601FE05C02F3F19F0019678
:1001A000A11DB11D3FBFBA2FA92F982F8827BC01D1
:1001B000CD01620F711D811D911D42E0660F771FF9
:1001C000881F991F4A95D1F708958F929F92AF92F9
:1001D000BF92CF92DF92EF92FF926B017C01CFDF53
:1001E0004B015C01C114D104E104F104B1F0C7DF9B
:1001F000681979098A099B09683E73408105910550
:1002000088F321E0C21AD108E108F10888EE880ECF
:1002100083E0981EA11CB11CE5CFFF90EF90DF900A
:10022000CF90BF90AF909F908F9008952FB7F89484
:1002300060917700709178008091790090917A00B8
:100240002FBF0895CF92DF92EF92FF920F931F93EB
:10025000CF93DF936B0101967C01EC01CC0FDD1F86
:10026000CC0FDD1F259710E000E00C151D05BCF438
:1002700061E081E01EDF82E0E816F10418F0CE01B3
:100280000197F1F760E081E014DF82E0E816F10405
:1002900018F0CE010197F1F70F5F1F4FE6CF60E036
:1002A00081E0DF91CF911F910F91FF90EF90DF9050
:1002B000CF90FFCE1F920F920FB60F9211242F9363
:1002C0003F938F939F93AF93BF93809177009091CB
:1002D0007800A0917900B0917A003091760023E007
:1002E000230F2D3758F50196A11DB11D20937600DF
:1002F0008093770090937800A0937900B0937A0070
:1003000080917B0090917C00A0917D00B0917E0057
:100310000196A11DB11D80937B0090937C00A0935A
:100320007D00B0937E00BF91AF919F918F913F91DF
:100330002F910F900FBE0F901F90189526E8230F56
:100340000296A11DB11DD2CFCF93DF9300D000D074
:100350001F92CDB7DEB778948AB582608ABD8AB520
:1003600081608ABD83B7826083BF83B7816083BFAA
:1003700089B7826089BF80B7826080BF80B78160A3
:1003800080BF329A319A309A379A8CB580648CBD8E
:1003900089E0EDDE9A83898387E0E9DE69817A81ED
:1003A000680F791F072E000C880B990B61157105DA
:1003B0008105910509F0A1D461E081E0A7DE61E04B
:1003C00080E0A4DE62E084E0A1DEEFE7F0E01192DD
:1003D00020E0E839F207D9F742D424E130E040E0E8
:1003E00050E0ADD424E630E040E050E08FD46C50D3
:1003F0007E4F8F4F9F4FE9DE6EE170E080E090E02E
:100400007CD461E080E082DE61E080E052DE27D4CF
:100410006B017C0124D42B013C0147E0842E912CFC
:10042000A12CB12CC701B601A501940188D49B0170
:10043000AC012E5F3F4F4F4F5F4F29833A834B8371
:100440005C8354E0C52ED12CE12CF12CC301B20108
:10045000A701960174D4DC01CB010196A11DB11D49
:1004600068EC70E0C9D669817A81ECDE61E080E0F9
:100470004DDE60E080E01DDE68EC70E080E090E042
:10048000A4DEEDD32B013C01EAD369837A838B830D
:100490009C83C301B201A501940151D44B015C01BD
:1004A00032E0830E911CA11CB11C69817A818B8181
:1004B0009C81A701960143D4DC01CB010196A11DCB
:1004C000B11D60E570E098D6B401BCDE03E010E039
:1004D00048E552E05A83498366E070E089819A8159
:1004E000B1DE89819A814E979A8389834E96A1F7CE
:1004F00064E670E080E090E068DE0150110941F7A9
:1005000064E670E080E090E060DE89E030DE9A83AF
:10051000898387E02CDE69817A81680F791F072E35
:10052000000C880B990B611571058105910509F087
:10053000E4D389E01CDE9A83898387E018DE698131
:100540007A81680F791F072E000C880B990B35D51F
:100550006093130170931401809315019093160119
:1005600060930F0170931001809311019093120119
:100570005DDE6093F7007093F8008093F90090932C
:10058000FA0011E02EE3222E20E0322E38E7832EEF
:10059000912CA12CB12C89E0EADD9A83898387E034
:1005A000E6DDC0901301D0901401E0901501F090A9
:1005B0001601E981FA818E0F9F1FBC01990F880BEC
:1005C000990BFBD4A7019601F8D323E333E343E36C
:1005D0005FE383D5A7019601F1D36B017C01C09243
:1005E0001301D0921401E0921501F09216011EDE63
:1005F00040900F0150901001609011017090120115
:10060000A301920168357B418105910508F093C0F3
:10061000C701B601D2D32FE632E143E85AE35DD5F4
:10062000A3019201CBD360930F01709310018093CB
:1006300011019093120160916F00709170004090D1
:100640000F01509010016090110170901201072E5F
:10065000000C880B990BB1D4A3019201AFD39B017D
:10066000AC01C701B60135D518160CF040C0809119
:100670000D0190910E01019690930E0180930D0152
:1006800060916D0070916E00072E000C880B990B25
:1006900094D4A301920192D39B01AC01C701B6018E
:1006A00018D518166CF410920C01C0DD6093080187
:1006B0007093090180930A0190930B011093070135
:1006C00080910701882309F43EC0B0DDC090080185
:1006D000D0900901E0900A01F0900B016C197D099E
:1006E0008E099F09603273408105910560F5109273
:1006F0000C01809106018093050150910C0120911D
:1007000061003091620090917F00991F9927991F95
:10071000EFE7F0E021503109C8F040E0121613066F
:100720002CF48181482F441F4427441F8081880F67
:10073000842B8193EFCFC701B6013FD322E838EA7B
:100740004BEF57E36CCF10930C01D3CFE0916100D6
:10075000F0916200E258FF4F80815523C9F081601B
:1007600080839093060180916100909162008837A8
:10077000910584F4E0916100F0916200E158FF4F2F
:10078000CF018F5790408837910524F41192F8CF0C
:100790008E7FE6CF6091010170910201809103018B
:1007A0009091040124E630E040E050E0C8D2672B8D
:1007B000682B692B99F560910D0170910E01072E40
:1007C000000C880B990BF9D320E030E048EC52E4A0
:1007D00059D32FE632E143E85AE37FD46B017C0121
:1007E00027E73EEB4FE75FE36091FD007091FE006D
:1007F0008091FF009091000170D49B01AC01C70172
:10080000B601DCD26093FD007093FE008093FF0080
:100810009093000110920E0110920D01E8E4F0E0B7
:100820008491F101F491FD83E4E3F0E024912983C4
:10083000222309F440C0811126DC3981E32FF0E046
:10084000EE0FFF1FE65DFF4FA591B4918C914D8196
:10085000482389F18CE390E09093700080936F00BF
:100860008EE096E090936E0080936D0080EF99E4A7
:10087000A2E0B0E08093630090936400A0936500D1
:10088000B093660080E590E090936C0080936B00DD
:1008900020EA36E841E050E020936700309368009A
:1008A0004093690050936A0089E190E09093620060
:1008B000809361005AC088EE93E090936C0080931F
:1008C0006B0088EA91E6A0E0B0E080936700909327
:1008D0006800A0936900B0936A0020E335E740E028
:1008E00050E0209363003093640040936500509380
:1008F00066008CE390E09093700080936F008AE331
:1009000097E090936E0080936D0020E030E04EEB16
:1009100052E46091FD007091FE008091FF00909183
:100920000001DBD32DEC3CEC4CEC5EE3ABD220E0E1
:1009300030E048EC51E442D20DD3709362006093F2
:10094000610080916100909162008937910534F0D7
:1009500088E790E09093620080936100809161004D
:100960009091620049970CF49FCF8091600088239A
:10097000A9F0109206015ADC69357B418105910589
:1009800008F49EC01092600061E081E092DB8BE38E
:100990009CE90197F1F760E081E08BDB8091060133
:1009A000813009F08DC08091FB009091FC00019690
:1009B0009093FC008093FB008536910514F0109213
:1009C00006016091060170E090E080E0F4D220E042
:1009D00030E04FE753E481D3BDD27A8369838091BD
:1009E000600081111AC0C0906300D0906400E09054
:1009F0006500F0906600C114D104E104F10409F02F
:100A000064C02DD122E030E040E050E098D1CB012D
:100A10006FEF70E0F1D39A838983C0906B00D09020
:100A20006C000D2C000CEE08FF08C114D104E10489
:100A3000F10441F014D1A701960181D1672B682BF5
:100A4000692B11F41A821982F1DBC0906700D090F3
:100A50006800E0906900F0906A004090F7005090C4
:100A6000F8006090F9007090FA0064197509860921
:100A70009709C616D706E806F906D0F5F0D024E1A6
:100A800030E040E050E05BD1672B682B692B81F5AB
:100A90008FE7E82E80E0F82EE2D0A50194014FD137
:100AA00097012F57304026173707CCF4D8D02FEFB7
:100AB00030E040E050E043D1D7016D937D01ECCFB1
:100AC0001092FC001092FB007CCFC9D0A7019601C8
:100AD00036D1672B682B692B09F09FCF92CFA6DB0D
:100AE0006093F7007093F8008093F9009093FA00F8
:100AF00061E080E00BDBE981FA81EF2B81F560E0BA
:100B000080E0D7DA9091060180910501891708F0FD
:100B100057C061E081E0CDDA89DB6093F700709324
:100B2000F8008093F9009093FA0080910101909170
:100B30000201A0910301B09104010196A11DB11D14
:100B40008093010190930201A0930301B0930401EB
:100B500080E090E0892B09F41ECD52DA12CD298174
:100B60003A812F3F310511F461E0CACFE4E4F0E0AF
:100B7000E491E230C9F040F4E13081F0A981BA811A
:100B8000A038B1058CF7BBCFE330A1F0E430B1F76A
:100B90008CB580628CBD89818BBDB4CF8AB58068ED
:100BA0008ABD398139BDAECF8AB580628ABD49819F
:100BB00048BDA8CF8CB580628CBD59815EBDA2CFE7
:100BC00060E081E076DAB1CF8F929F92AF92BF92D0
:100BD000CF92DF92EF92FF92CF93DF93EC01688187
:100BE00079818A819B81611571058105910521F4C7
:100BF00064E279ED8BE597E02DE133EF41E050E0E1
:100C00009ED049015A0127EA31E440E050E07ED00D
:100C10006B017C012CEE34EF4FEF5FEFC501B401A7
:100C200075D0C60ED71EE81EF91EF7FE06C081E07D
:100C3000C81AD108E10880E8F80AC882D982EA8295
:100C4000FB82C701B6019F77DF91CF91FF90EF90B4
:100C5000DF90CF90BF90AF909F908F9008958F922C
:100C60009F92AF92BF92CF92DF92EF92FF926091EC
:100C70007100709172008091730090917400611501
:100C800071058105910521F464E279ED8BE597E02A
:100C90002DE133EF41E050E052D049015A0127EAFB
:100CA00031E440E050E032D06B017C012CEE34EFB7
:100CB0004FEF5FEFC501B40129D0C60ED71EE81E65
:100CC000F91EF7FE06C081E0C81AD108E10880E8E5
:100CD000F80AC0927100D0927200E0927300F09214
:100CE0007400C701B6019F77FF90EF90DF90CF901F
:100CF000BF90AF909F908F90089560937100709314
:100D0000720080937300909374000895EE27FF277C
:100D1000AA27BB2708C0A20FB31FE41FF51F220F8D
:100D2000331F441F551F969587957795679598F3C0
:100D30007040A9F7009799F7BD01CF010895052EDE
:100D400097FB16F400940FD057FD05D014D007FC84
:100D500002D046F408C050954095309521953F4FFC
:100D60004F4F5F4F089590958095709561957F4F97
:100D70008F4F9F4F0895A1E21A2EAA1BBB1BFD01A6
:100D80000DC0AA1FBB1FEE1FFF1FA217B307E4076A
:100D9000F50720F0A21BB30BE40BF50B661F771FC2
:100DA000881F991F1A9469F76095709580959095A2
:100DB0009B01AC01BD01CF0108955058BB27AA2764
:100DC0000ED04DC13ED130F043D120F031F49F3FE1
:100DD00011F41EF433C10EF4E095E7FB29C1E92FAD
:100DE0004FD180F3BA17620773078407950718F08D
:100DF00071F49EF567C10EF4E0950B2EBA2FA02D6D
:100E00000B01B90190010C01CA01A0011124FF27B7
:100E1000591B99F0593F50F4503E68F11A16F040B2
:100E2000A22F232F342F4427585FF3CF46953795B1
:100E30002795A795F0405395C9F77EF41F16BA0B76
:100E4000620B730B840BBAF09150A1F0FF0FBB1F24
:100E5000661F771F881FC2F70EC0BA0F621F731F6D
:100E6000841F48F4879577956795B795F7959E3FCA
:100E700008F0B3CF9395880F08F09927EE0F979558
:100E8000879508950CD0EBC0E3D040F0DAD030F075
:100E900021F45F3F19F0CCC0511115C1CFC0F0D083
:100EA00098F39923C9F35523B1F3951B550BBB2731
:100EB000AA2762177307840738F09F5F5F4F220FDE
:100EC000331F441FAA1FA9F333D00E2E3AF0E0E8D7
:100ED00030D091505040E695001CCAF729D0FE2F23
:100EE00027D0660F771F881FBB1F261737074807B5
:100EF000AB07B0E809F0BB0B802DBF01FF2793586B
:100F00005F4F2AF09E3F510568F092C0DCC05F3F02
:100F1000ECF3983EDCF3869577956795B795F79552
:100F20009F5FC9F7880F911D9695879597F908954A
:100F3000E1E0660F771F881FBB1F621773078407E6
:100F4000BA0720F0621B730B840BBA0BEE1F88F7F5
:100F5000E095089504D06894B111B5C0089598D073
:100F600088F09F5790F0B92F9927B751A0F0D1F092
:100F7000660F771F881F991F1AF0BA95C9F712C01C
:100F8000B13081F09FD0B1E008959CC0672F782FD9
:100F90008827B85F39F0B93FCCF386957795679588
:100FA000B395D9F73EF490958095709561957F4FF4
:100FB0008F4F9F4F0895E89409C097FB3EF490959A
:100FC0008095709561957F4F8F4F9F4F9923A9F022
:100FD000F92F96E9BB279395F695879577956795B1
:100FE000B795F111F8CFFAF4BB0F11F460FF1BC0F5
:100FF0006F5F7F4F8F4F9F4F16C0882311F096E988
:1010000011C0772321F09EE8872F762F05C0662335
:1010100071F096E8862F70E060E02AF09A95660FEE
:10102000771F881FDAF7880F9695879597F90895A7
:1010300097F99F6780E870E060E008959FEF80EC8B
:10104000089500240A94161617061806090608952E
:1010500000240A9412161306140605060895092E94
:101060000394000C11F4882352F0BB0F40F4BF2B03
:1010700011F460FF04C06F5F7F4F8F4F9F4F089543
:1010800057FD9058440F551F59F05F3F71F0479539
:10109000880F97FB991F61F09F3F79F0879508951E
:1010A000121613061406551FF2CF4695F1DF08C03D
:1010B000161617061806991FF1CF8695710561055A
:1010C00008940895E894BB2766277727CB0197F902
:1010D00008956ED008F48FEF08950AD0C0CFB1DF25
:1010E00028F0B6DF18F0952309F0A2CFA7CFEBCFF9
:1010F000C7DFA8F39923D9F35523C9F3950F50E01F
:10110000551FAA27EE27FF27BB27002408946795C1
:1011100020F4E20FF31FB41F0A1E220F331F441FD7
:10112000AA1F6695A9F7779530F4F30FB41F0A1E2E
:10113000121E08F46395330F441FAA1F221F7695D1
:1011400099F7879520F4B40F0A1E121E631F440FEF
:10115000AA1F221F331F8695A9F7862F712D602D98
:1011600011249F5750408AF0E1F088234AF0EE0F97
:10117000FF1FBB1F661F771F881F91505040A9F7A4
:101180009E3F510570F054CF9ECF5F3FECF3983EE9
:10119000DCF3869577956795B795F795E7959F5F0B
:1011A000C1F7FE2B880F911D9695879597F90895A5
:1011B000990F0008550FAA0BE0E8FEEF1616170668
:1011C000E807F907C0F012161306E407F50798F0D0
:1011D000621B730B840B950B39F40A2661F0232BE9
:1011E000242B252B21F408950A2609F4A140A69565
:1011F0008FEF811D811D08950024552704C0080E1E
:10120000591F880F991F009729F076956795B8F3B5
:0E1210007105B9F7802D952F0895F894FFCF42
:10121E00011900F0490200A086010050000E063CA4
:06122E00000100000000B9
:00000001FF
